:020000040800F2
:100000007034002085020008DD2B0008E11F000885
:10001000D929000893190008F341000800000000E6
:10002000000000000000000000000000ED010008DA
:10003000851B00080000000031020008D9330008C9
:100040009F0200089F0200089F0200089F0200080C
:100050009F0200089F0200089F0200089F020008FC
:100060009F0200089F0200089F0200089F020008EC
:100070009F0200089F0200089F0200089F020008DC
:100080009F0200089F0200089F0200089F020008CC
:100090009F0200089F0200089F0200089F020008BC
:1000A0009F0200089F0200089F0200089F020008AC
:1000B000153900089F020008253A00089F02000831
:1000C0009F0200089F0200089F0200089F0200088C
:1000D0009F020008094000089F0200089F020008D4
:1000E0009F0200089F0200089F02000800F002F82B
:1000F00000F06DF80AA090E8000C82448344AAF155
:100100000107DA4501D100F062F8AFF2090EBAE852
:100110000F0013F0010F18BFFB1A43F0010318473B
:10012000E8A1000008A200000A444FF0000C10F8FB
:10013000013B13F0070408BF10F8014B1D1108BF65
:1001400010F8015B641E05D010F8016B641E01F805
:10015000016BF9D113F0080F1EBF10F8014BAD1C55
:100160000C1B09D16D1E58BF01F801CBFAD505E073
:1001700014F8016B01F8016B6D1EF9D59142D6D3CD
:10018000704700000023002400250026103A28BFF5
:1001900078C1FBD8520728BF30C148BF0B607047F9
:1001A000662908F02484642900F0D880732900F0BF
:1001B0008A84002070471FB500F0F0FC0400002086
:1001C000002107F0E9FAE0601FBD10B510BD00F096
:1001D00011FE1146FFF7EFFF04F0A2FB00F02FFE27
:1001E00003B4FFF7F2FF03BC04F097F9224B196840
:1001F0000868B0E8F00F80F30988BFF36F8F4FF005
:10020000000080F311884EF00D0E704700000000D2
:1002100006480068006880F3088862B661B6BFF3DC
:100220004F8FBFF36F8F00DF00BF00BF08ED00E00E
:10023000EFF30980BFF36F8F0F4B1A6820E9F00FBF
:10024000106008B54FF0300080F31188BFF34F8F76
:10025000BFF36F8F06F04AFB4FF0000080F3118868
:10026000BDE8084019680868B0E8F00F80F3098815
:10027000BFF36F8F704700BF70000020EFF3058061
:10028000704700000948804709480047FEE7FEE73D
:10029000FEE7FEE7FEE7FEE7FEE7FEE7FEE7FEE736
:1002A00004480549054A064B70470000E933000839
:1002B000ED000008702E0020703400207030002007
:1002C00070300020704700000FB4044910B503AA35
:1002D000029800F0FDFB10BC5DF814FB50000020FC
:1002E0000FB41CB5074B06AA7B44694600900598DD
:1002F00000F0BFFB0020694600F0CEFB1CBC5DF89F
:1003000014FB0000AD07000070B50C460546012A3D
:1003100005D02878800600D5EA69002302E0012391
:1003200005E05B1C934202D2E05C0028F9D1A86989
:10033000E618C01AA861286A184428622846AFF354
:10034000008004E0D5E9012114F8010B9047B44284
:10035000F8D32846AFF3008070BD00002DE9F041CE
:100360000646002410687529314616A510D0AFF353
:100370000080002802DA404213A507E031688A07AE
:1003800001D512A502E0490704D511A5012401E019
:10039000AFF3008000210A2206F1240709E0B0FB38
:1003A000F2FCB0FBF2F302FB1C003030785418462C
:1003B000491C0028F3D123462A463046BDE8F041C7
:1003C00000F0EBB8000000002D0000002B00000042
:1003D000200000002DE9F0474FF0000A894604464E
:1003E000C0F820A02046E1688847002876D025285C
:1003F00006D0D4E901219047206A401C2062F1E731
:10040000E168204600258847C4F81CA0064600275E
:10041000C4F818A02A2E09D0304604F077F838B373
:1004200004EB8708303EC8F8186019E059F8041B3F
:10043000204604EB87029161E1688847012F064658
:1004400018D1E069002820DA25F020051DE0D8F851
:10045000180000EB800006EB40003038C8F81800A8
:100460002046E1688847064604F050F80028EED19F
:10047000012F0AD02E2E08D12046E16888477F1C24
:100480000646022F45F02005C4DBA069002803DAE8
:10049000404245F00105A061E80701D025F01005B4
:1004A000B6B1A6F14100192802D8203645F40065FE
:1004B0004A463146204625604D46FFF771FE58B149
:1004C000012806D0ED1D25F0070000F1080989E795
:1004D00004E005F1040985E730468AE7206ABDE8B3
:1004E000F087032A40F2308010F0030C00F01580F2
:1004F00011F8013BBCF1020F624498BF11F801CB27
:1005000000F8013B38BF11F8013BA2F1040298BF8B
:1005100000F801CB38BF00F8013B11F0030300F0F5
:10052000E982083AC0F0088051F8043B083A51F8D3
:1005300004CBA0E80810F5E7121D5CBF51F8043B9E
:1005400040F8043BAFF30080D20724BF11F8013B11
:1005500011F801CB48BF11F8012B24BF00F8013B73
:1005600000F801CB48BF00F8012B704702F0FF03F1
:1005700043EA032242EA024200F0F0BA70477047B1
:100580007047704710B500F00DFB006810BD10B546
:10059000044600F007FB046010BD2DE9F0470D464E
:1005A00099469246044600F124080168880604D55D
:1005B000E06921F01001216000E00120A84201DD86
:1005C000471B00E00027A1697A1902EB0900081A0D
:1005D000A0612078C00602D42046AFF30080002638
:1005E00008E0D4E901211AF806009047206A401C6F
:1005F000761C20624E45F4DB2078C0060AD52046E2
:10060000AFF3008006E0D4E9012130209047206A52
:10061000401C2062381EA7F10107F4DC07E0D4E992
:10062000012118F805009047206A401C2062281E0E
:10063000A5F10105F3DC2046AFF300802078000629
:1006400002D50220BDE8F0870120FBE770472DE9C5
:10065000FF4F0C461E464FF0FF378BB0D2E900012A
:10066000DDF860800A908A46C1F30A5505B93D4617
:10067000002108464FF00000BAF1000F00F44000DE
:1006800005DA00EB80004FF4400101EA50004FEA28
:100690009059B9F1010F00DDB9460A9850EA4A00B5
:1006A0000ED044F61050A5F2FF3545432F14B8F193
:1006B000000F1ED07542291E1EDDC9F100021CE08C
:1006C000B8F1010F4FF0000001D0302103E0F243F8
:1006D00005E02154401CB042FBDB304600220021E3
:1006E00021540B99C1F80880C1E900200FB0BDE882
:1006F000F08FBD1B6D1CDEE74A4600DA694206A892
:1007000000F0DAFA06AB93E8070003AB83E80700D2
:1007100050460A9900F0DCFB8DE80700A0F5005078
:100720001F3800900398002D09DD42F21F014A4650
:10073000084403A90390684600F03BFE08E0A0F5DA
:1007400000504A461F3803A90390684600F045FE52
:100750008DE807000004000C03D04FF0FF30410883
:1007600000E01046B8F1000F03D0002200921546B9
:100770001EE0751E05D400F019FA303262556D1E68
:10078000F9D5B3460122084302D000227F1C04E0C1
:100790002078302801D100227F1E002A099786D0B8
:1007A0001DE0112D07DA00F001FA303262556D1CA0
:1007B00050EA0102F5D1084302D00098C8B10EE01A
:1007C0000021681E05E0235C625C63542254401ED5
:1007D000491C8142F7DBAB46A81B401E0990002054
:1007E00004F80B000B98099AC0F80880C0E9002BA8
:1007F0007CE711264FF0000859E72DE9F04F8846B5
:100800000446D21D22F0070191B0D1E90001CDE9E3
:100810000A0103F0F1FD02460B98C00F01D02D2014
:1008200007E02068810701D52B2002E0202101EAA2
:10083000C000032A099001D0072A05DB0346414680
:10084000204600F0F9F90BE12078800601D5E06937
:1008500000E00620B8F1650F814606D0B8F1660FBA
:1008600018D0B8F1670F70D131E00020B9F1110F45
:10087000009001DB112301E009F101030AAA01A99B
:100880000CA8FFF7E4FEDDE90C70002609F1010574
:10089000834647E001204B4600904FF000470AAAEC
:1008A00001A90CA8FFF7D3FEDDE90DB00C995D4658
:1008B000002610B909F101000D18B9EB050003D4A9
:1008C000C0F1FF3609F10105A5EB09002BE0B9F1F4
:1008D000010F01DA4FF001090020B9F1110F00906A
:1008E000484601DD112300E003460AAA01A90CA82D
:1008F000FFF7ADFEDDE90C704D46002683462078FB
:1009000000070AD4AB4500DA5D4601A8012D04DDDD
:10091000411911F8011C302907D04F4502DA17F1AF
:10092000040F04DA012082460FE06D1EEEE7002F6F
:1009300002DCED1B3E4403E0781CA84200DD7D1C78
:10094000B81B00F1010A4FF000472078000703D4DC
:10095000AA4501DB4FF0FF3A0021B7F1004F0DF13E
:1009600043088DF8431024D002202B23002F01DAF6
:100970007F422D230A21021EA0F1010000DC5FB19D
:1009800097FBF1FC97FBF1F201FB1C7C17460CF185
:10099000300C08F801CDEEE7A8F1010003702188C2
:1009A000090501D5452100E06521A0F1010800F805
:1009B000011C09980FA9A1EB0807FF1D00B1012038
:1009C000411901EBEA70A1693844081A401EA06180
:1009D0002078C00602D42046AFF30080099828B1E1
:1009E000D4E901219047206A401C20622078C0068B
:1009F00022D52046AFF300801EE0002E04DBB34575
:100A000002DD01A8805D00E03020D4E9012190479B
:100A1000206A401C2062761CAAF101005FEA000AED
:100A20000AD100F0BBF8C0680168405CD4E901213C
:100A30009047206A401C2062281EA5F10105DCDCDD
:100A400007E0D4E9012118F8010B9047206A401C07
:100A50002062381EA7F10107F3DC2046AFF30080C7
:100A6000032011B043E6000001694A1C02610878C6
:100A7000704700B58FB0CDE90131002105910549DE
:100A80007944CDE9031011466846FFF7A3FC0FB087
:100A900000BD0000E5FFFFFF0A6802F8010B0A60D5
:100AA000704710B5436913B1AFF3008001E0FFF761
:100AB0002BFC012010BD127800F124010A700022E5
:100AC0004A700122EDE711684FF0FF32E9E70000BC
:100AD000074B70B50D467B44FFF7CBFF0446284615
:100AE00000F058F910B14FF0FF3070BD204670BDD6
:100AF000CB3B000010B5203AC0F00B80B1E8185095
:100B0000203AA0E81850B1E81850A0E81850BFF4F7
:100B1000F5AF5FEA027C24BFB1E81850A0E8185096
:100B200044BF18C918C0BDE810405FEA827C24BFEA
:100B300051F8043B40F8043B08BF7047D20728BF78
:100B400031F8023B48BF11F8012B28BF20F8023BC7
:100B500048BF00F8012B70474FF000020429C0F095
:100B6000128010F0030C00F01B81CCF1040CBCF1DE
:100B7000020F18BF00F8012BA8BF20F8022BA1EB31
:100B80000C0100F00DB95FEAC17C24BF00F8012B15
:100B900000F8012B48BF00F8012B70470048704750
:100BA000302E002000487047102E002030B5B0F1E4
:100BB0000A024FEA900E71F100034EEA817EB0EB1B
:100BC0000E0061EB91014FEA101E4EEA017E10EB20
:100BD0000E0041EB11114FEA102E4EEA016E10EBA0
:100BE0000E0041EB11214FEA104E4EEA014E10EB80
:100BF0000E0041EB1141401841F100014FEAD000D5
:100C000040EA41704FEAD10110EB80054FEA8104C0
:100C100044EA907444EB01046D1944EB0404521B44
:100C2000A3414FF0000348BF0A3200D530BD401C3D
:100C300041F1000130BD00002DE9F0411F4604469E
:100C400003260168072A01F4006004DB08B116A539
:100C500005E016A503E008B115A500E015A521F0F3
:100C600010002060A069C01EA0610FB1401EA061ED
:100C70002046AFF300804FB1D4E9012138469047B8
:100C8000206A401C2062C01C206206E0206AFAE74D
:100C9000D4E9012115F8010B9047761EF8D22046C1
:100CA000AFF30080BDE8F0814E414E006E616E00F2
:100CB000494E4600696E66002DE9F04781461646AA
:100CC0008AB0334878440DC88DE80D003048784428
:100CD000801C03AC0DC884E80D0041F69B3008442D
:100CE000372190FBF1F290FBF1F5A5F1800501FBB6
:100CF00012041B3C02D56442012000E00020DFF812
:100D000090A080460027FA44AAF1BE0A0DE0E00751
:100D100009D03246684607EB47010AEB810100F033
:100D20005CFB8DE8070064107F1C002CEFD1184F8E
:100D30007F44AC3F18E0E80714D007EB04100DF136
:100D4000180A90E80E008AE80E00C068F04201D14F
:100D500098190890324606A903A800F03EFB03ABA1
:100D600083E807006D10641C002DE4D1324669460B
:100D7000B8F1000F03A802D000F01BFB01E000F067
:100D80002CFBC9E90001C9F808200AB0BDE8F087CA
:100D9000D4950000007B00F0800070474FF0000207
:100DA00000B5134694469646203922BFA0E80C5061
:100DB000A0E80C50B1F12001BFF4F7AF090728BF3C
:100DC000A0E80C5048BF0CC05DF804EB890028BFB8
:100DD00040F8042B08BF704748BF20F8022B11F0E1
:100DE000804F18BF00F8012B704700000048704783
:100DF000102E00207546FFF7F9FFAE460500694644
:100E0000534620F00700854618B020B5FFF748FA92
:100E1000BDE820404FF000064FF000074FF00008FB
:100E20004FF0000B21F00701AC46ACE8C009ACE87C
:100E3000C009ACE8C009ACE8C0098D46704710B5E0
:100E40000446AFF300802046BDE81040FFF7C8B964
:100E50004FF0013C50F8042B51F8043B9A4221D149
:100E6000A2EB0C03934313EACC1317D150F8042BD5
:100E700051F8043B9A4215D1A2EB0C03934313EAB9
:100E8000CC130BD150F8042B51F8043B9A4209D1F2
:100E9000A2EB0C03934313EACC13DBD04FF000001A
:100EA000704700BFD01A01BAB1FA81F101F0180100
:100EB00022FA01F0CB40C1F12001DBB2C0B2C01A6E
:100EC0002CFA01F3D11A914311EAC311E6D170470C
:100ED0005FEA400C08BF91F0000F4FEA8C234FEA05
:100EE000C12243EA51514FEA1C5018BF00F5F040AF
:100EF0004FEA300018BF41F000415FEA6C5C00F03F
:100F00002980BCF1FF3F08BF40F080407047130CC0
:100F100006BF12044FF0100C4FF0000C130E04BF6C
:100F200012020CF1080C130F04BF12010CF1040C97
:100F3000930F04BF92000CF1020CD30F04BF5200B8
:100F40000CF1010C11464FF00002A0F11F00A0EBC4
:100F50000C00704711F0004F08BF704731F000419E
:100F60003FF4D5AF0B0C06BF09044FF0100C4FF047
:100F7000000C0B0E04BF09020CF1080C0B0F04BF90
:100F800009010CF1040C8B0F04BF89000CF1020C59
:100F9000CB0F04BF49000CF1010CCCF12003A0EBF6
:100FA0000C0022FA03F302FA0CF241EA030100F109
:100FB0000100704720F07F4C80EA030023F07F4758
:100FC000ACEB070303F57C5300F0004003F1FF0393
:100FD0002DE980494FEA154B09B44FEA144325EA3D
:100FE0000B4E24EA03480FF2042606EB13274908A8
:100FF0003E785FEA320203FB0667C7F5000707FB8E
:1010000006F64FEA54374FEAD64606F1020607FBCA
:10101000066CCCF1005C4FEA1C472CEA074C07FB3E
:1010200006F40CFB06F504EB15464FEA961634BFA2
:1010300000204FF000404FEAD13706FB07FC4FEA93
:101040001C4C0CFB0BF7D21B03FB0CF761EB0701ED
:101050000CFB0EF7B0EB074072EB17420CFB08F7E6
:1010600034BFA2EB0742B2EB074261EB17414FEAF4
:101070000C444FEA910706FB07FC4FEA1C4C0CFBA3
:101080000BF7B0EBC74072EB573203FB0CF734BFE2
:10109000A2EBC742B2EBC74261EB57310CFB0EF734
:1010A000B0EBC70072EB57720CFB08F734BFA2EB32
:1010B000C702B2EBC70261EB5771039F4FEA816130
:1010C00041EA921104EBCC044FEAD1374FEA826235
:1010D00006FB07FC42EA90124FEA80604FEA1C4C84
:1010E0000CFB0BF7D21B03FB0CF761EB07010CFBAE
:1010F0000EF7B0EB074072EB17420CFB08F734BF5A
:10110000A2EB0742B2EB074261EB17414FEA8C5565
:101110004FEA910704EB9C2406FB07FC4FEA1C4CAA
:101120000CFB0BF7B0EBC74072EB573203FB0CF72D
:1011300034BFA2EBC742B2EBC74261EB57310CFBA5
:101140000EF7B0EBC70072EB57720CFB08F734BF19
:10115000A2EBC702B2EBC70261EB577115EB4C254E
:101160004FEA816141EA92114FEA82624FEAD13738
:1011700042EA901206FB07FC44F100044FEA80604B
:101180004FEA1C4C0CFB0BF7D21B03FB0CF761EB7B
:1011900007010CFB0EF7B0EB074072EB17420CFB9C
:1011A00008F734BFA2EB0742B2EB074261EB1741ED
:1011B00015EB1C154FEA813141EA92414FEA823228
:1011C00042EA90424FEA80304FEA0C7644F1000444
:1011D00048EA03434EEA0B484FF0000EB2EB080C0E
:1011E00071EB030724BF624639464EEB0E0E4FF0FB
:1011F000000B0018524149414BEB0B0BB2EB080CB2
:1012000071EB03077BF1000B24BF624639464EEBBE
:101210000E0E4FF0000B0018524149414BEB0B0BE7
:10122000B2EB080C71EB03077BF1000B24BF6246A5
:1012300039464EEB0E0E51EA020718BF46F0010682
:1012400016EB0E7655F1000254F1000103D5BDE80E
:101250008901BDE80088BDE88901BDE80048B619EC
:10126000524141EB0101A3F10103704780807F7E71
:101270007D7C7B7A7978777676757473727171700C
:101280006F6E6E6D6C6C6B6A6A69686867666665BE
:101290006464636362616160605F5F5E5E5D5D5C4C
:1012A0005C5B5B5A5A5959585857575656555555BD
:1012B0005454535352525251515050504F4F4F4E1D
:1012C0004E4D4D4D4C4C4C4B4B4B4A4A4A4949496B
:1012D00048484847474747464646454545444444AD
:1012E000444343434342424242414141002B26D4BE
:1012F000770021D01CB54FEA370703B44FF0100038
:101300004FF010014FF000000FBCBDE810400BF192
:10131000010BBBF1010F08BF5FEA170722BF12F1F3
:10132000010211F101014FF0004143F1000300F00F
:10133000004043EA00007047F9D35708DAE746EA6D
:10134000064613F1400F4FEA16461FDD13F1200F3A
:10135000DFBF16430A46002120335B42C8D0C3F1E9
:10136000200746EA064602FA07F74FEA164646EA1B
:101370000706C3F1200722FA03F201FA07F721FA60
:1013800003F14FF0000342EA0702B1E746EA020622
:1013900046EA06464FEA164646EA0106BCBF46EA5A
:1013A0000646360C4FF000034FF000024FF00001EC
:1013B0009EE72DE9C048934630B491E8380007C84D
:1013C00031EA400C48BF34EA430C03D5FFF7F2FD85
:1013D000FFF78CFFF0BCBDE800882DE9C0489346BC
:1013E00030B491E8380007C810F0804F08BF13F000
:1013F000804F03D100F005F8FFF778FFF0BCBDE89F
:10140000008820F07F4780EA030023F07F4C07EB41
:101410000C03A3F57C5300F00040A3F1FE0392F00F
:10142000000F00F0B38095F0000F00F077802DE9F9
:1014300001494FEA11404FEA144621EA004800FBF7
:1014400006FC24EA064708FB06F607FB08F800FB43
:1014500007F718EB06484CEB164C4FEA124B18EB0B
:1014600007484FEA15464CEB174022EA0B4E0BFBA0
:1014700006FC25EA06470EFB06F607FB0EFE0BFBF5
:1014800007F71EEB064E4CEB164C4FF000061EEB1A
:10149000074E4CEB174B18EB0B0840F1000018EB14
:1014A0000E0B58EB000840F100008F1A4FF00001BE
:1014B0003CBFC943661B14BFB5EB040C00213CBF05
:1014C000C943F61B4FEA17444EEA8E0E27EA04453D
:1014D0004FEA1C4704FB07622CEA074C05FB07F7A1
:1014E0000CFB05F604FB0CFC16EB074642EB17421F
:1014F00016EB0C4642EB1C421BEB060658EB0202B5
:10150000414146EA9E0601D5BDE80189B61952411E
:1015100041EB0101A3F10103BDE801894FEA144544
:101520004FEA114724EA054621EA074C05FB07F478
:1015300006FB07F70CFB06F105FB0CFC11EB074162
:1015400044EB17444FEA124711EB0C4144EB1C44A7
:1015500022EA074C05FB07F206FB07F70CFB06F631
:1015600005FB0CFC16EB074642EB174216EB0C464C
:1015700042EB1C456A1854F1000148BF7047B61988
:10158000524141EB0101A3F10103704795F0000FB7
:1015900037D04FEA11424FEA144721EA024624EAC3
:1015A000074C02FB07F106FB07F70CFB06F402FBF6
:1015B0000CFC14EB074441EB17414FEA154714EBC1
:1015C0000C4441EB1C4125EA074C02FB07F506FBE6
:1015D00007F70CFB06F602FB0CFC16EB074645EB87
:1015E000174516EB0C4645EB1C42121951F1000150
:1015F00048BF7047B619524141EB0101A3F1010305
:1016000070474FEA14454FEA114724EA054621EA9C
:10161000074C05FB07F106FB07F70CFB06F24FF042
:10162000000605FB0CFC12EB074241EB174112EBE5
:101630000C4251EB1C4148BF7047921841EB01012D
:10164000A3F10103704721B1826842F00102826078
:1016500003E0826822F001028260704710B5044600
:101660001248844208D10121401501F09BFB002162
:10167000601501F097FB17E00D48844208D1012165
:10168000001501F08FFB0021201501F08BFB0BE012
:101690000848844208D10121C80301F083FB0021DE
:1016A0004FF4004001F07EFB10BD0000002401401B
:1016B00000280140003C0140014600208A6802F0F9
:1016C00004020AB1012000E0002070470146C86C06
:1016D00080B270470246002013680B400BB1012016
:1016E00000E000207047014600208A6802F00802EE
:1016F0000AB1012000E000207047000030B502462A
:101700000020002350680F4C20400D790C6844EAFB
:1017100005242043506090680B4C2040D1E90254CE
:101720002C434D7944EA450420439060D06A20F46C
:1017300070000C7C641EE4B2234340EA0350D06284
:1017400030BD0000FFFEF0FFFDF7F1FFF0B50446ED
:101750000D4600200021092D11DDE068A5F10A06E3
:1017600006EB4607072606FA07F18843A5F10A06A5
:1017700006EB460603FA06F10843E0600CE0206938
:1017800005EB4507072606FA07F1884305EB4506F2
:1017900003FA06F108432061072A0FDA606B561E30
:1017A00006EB86071F2606FA07F18843561E06EB4E
:1017B000860605FA06F10843606322E00D2A0FDA77
:1017C000206BD61F06EB86071F2606FA07F1884313
:1017D000D61F06EB860605FA06F10843206310E0E3
:1017E000E06AA2F10D0606EB86071F2606FA07F14E
:1017F0008843A2F10D0606EB860605FA06F10843BA
:10180000E062F0BD816841F008018160704721B15C
:10181000826842F4A002826003E0826822F4A0029F
:1018200082607047816841F0040181607047000068
:10183000002436E01B48007803282AD1194A916910
:10184000906807F02DF801D8012000E00020044640
:101850007CB114498868144906F022FF1ED2012089
:101860001049C875887003F0AFF80F480D498861BA
:1018700014E00C4988680D4906F012FF0ED20020D2
:101880000849C875887003F0A7F8084805498861B9
:1018900004E000200349C87504488861642002F010
:1018A000BDFEC7E7EC2D00200000FA440000C8424E
:1018B00070B505460C4616461E48844204D10121E7
:1018C000042001F05FFA2EE01B48844204D101217C
:1018D000082001F057FA26E01848844204D101217B
:1018E000102001F04FFA1EE01548844204D1012176
:1018F000202001F047FA16E01248844204D1012169
:10190000402001F03FFA0EE00F48844204D101214B
:10191000802001F037FA06E00C48844203D101210F
:10192000801501F02FFA2C60AE80284600F010F8E8
:1019300070BD000000080140000C01400010014093
:101940000014014000180140001C0140002001402B
:1019500038B50446A088ADF8000010208DF80300CB
:1019600003208DF802006946206800F00CF920463B
:1019700000F001F838BD10B50446A188206800F0D9
:1019800096F910BD10B50446A188206800F091F9C1
:1019900010BD00BFFEE770B505460C462046FFF7B8
:1019A000F1FF284602F03AFE2046FFF7E4FF70BD43
:1019B00070B506460D4614462946304606F070FEC0
:1019C00001D2284670BD2146304606F069FF01D29B
:1019D0002046F7E73046F5E738B50446204602F0E2
:1019E0009FFD04208DF80300A088ADF800000320BF
:1019F0008DF802006946206800F0C5F838BD38B59A
:101A00000446204602F08CFD10208DF80300A088CB
:101A1000ADF8000003208DF802006946206800F050
:101A2000B2F8A188206800F042F9142002F0F6FD17
:101A3000A188206800F03DF91E2002F00FFEA18869
:101A4000206800F034F938BD2DE9F0410746002543
:101A5000002400262AE004E0012002F0FFFD601CC3
:101A6000C4B2384604F00CFB08B9642CF4DB002443
:101A70001E2002F0F3FDA046384604F001FB0128C9
:101A800000D1804604E0012002F0E8FD601CC4B2F1
:101A9000384604F0F5FA012801D1642CF3DB002468
:101AA0006806050E45EA0805701CC6B2082ED2DB92
:101AB0002846BDE8F08100002DE9F047074688463A
:101AC00091469A46089E0025C6F80090A6F804A004
:101AD0003046FFF794FF3046FFF77EFF142002F0F8
:101AE000BDFD304604F0CCFA002828D104E00120E6
:101AF00002F0B4FD681CC5B2304604F0C1FA08B962
:101B0000642DF4DB002504E0012002F0A7FD681C31
:101B1000C5B2304604F0B4FA012801D1642DF3DBDC
:101B20000025002406E03046FFF78EFF13490855D4
:101B3000601CC4B2052CF6DB322002F08FFD0F488A
:101B400000780E49497808440C49897808440B49C3
:101B5000C97808440A490860084800790978884229
:101B600009D10648007888F8000004488078387069
:101B70000120BDE8F0870020FBE700002C000020DA
:101B80003400002070472DE9F04102460025002670
:101B9000002000230024002791F803C00CF00F055B
:101BA00091F803C00CF0100CBCF1000F03D091F8B9
:101BB00002C04CEA050591F800C0BCF1000F31D01D
:101BC000146800202BE04FF0010C0CFA00F3B1F880
:101BD00000C00CEA03069E4220D183004FF00F0C98
:101BE0000CFA03F7BC4305FA03FC4CEA040491F831
:101BF00003C0BCF1280F06D14FF0010C0CFA00FC19
:101C0000C2F814C00AE091F803C0BCF1480F05D136
:101C10004FF0010C0CFA00FCC2F810C0401C082860
:101C2000D1D31460B1F800C0BCF1FF0F34DD5468AB
:101C300000202EE000F1080C4FF0010808FA0CF328
:101C4000B1F800C00CEA03069E4221D183004FF098
:101C50000F0C0CFA03F7BC4305FA03FC4CEA04042E
:101C600091F803C0BCF1280F05D100F1080C08FA67
:101C70000CF8C2F8148091F803C0BCF1480F07D1EA
:101C800000F1080C4FF0010808FA0CF8C2F81080B7
:101C9000401C0828CED35460BDE8F08102460020E5
:101CA00093680B400BB1012000E0002070474161B8
:101CB00070470161704700002DE9FC5F05468846CA
:101CC00091469A46DDF830B000953E200190002400
:101CD0005FE004EB0410374911F810009BF8001086
:101CE000884253D104EB0410324901EB40004078A4
:101CF0009BF80110884249D108F10F0083B205F129
:101D00000F0082B24146284600F046FC00263BE028
:101D1000002734E00D9890B904EB0410254901EB3D
:101D20004000801C805D80213941084018B1484640
:101D300000F06EFD21E0504600F06AFD1DE01E48F7
:101D4000A0F8009004EB04101A4901EB4000801C3D
:101D5000805D80213941084018B14146284600F095
:101D6000B9FA681C85B20098281A102805D1009D80
:101D700008F101001FFA80F803E0781CC7B2082FB1
:101D8000C8DB00BF701CC6B2202EC1DB00BF601CC8
:101D900084B2019884429CDB08484088401E83B28C
:101DA00006480088401E82B20021084600F0F4FB7D
:101DB000BDE8FC9F4695000838000020680100201F
:101DC0002DE9FC5F0546884691469A46DDF830B01D
:101DD000009507200190002467E004EB840000EBED
:101DE00044103A4911F810009BF80010884259D16C
:101DF00004EB840000EB4410344901EB40004078D0
:101E00009BF8011088424DD108F1170083B205F10B
:101E1000170082B24146284600F0BEFB00263FE094
:101E2000002738E00D98A0B904EB840000EB4410C3
:101E3000264901EB4000801C805D8021394108402B
:101E400018B1484600F0E4FC23E0504600F0E0FC06
:101E50001FE01F48A0F8009004EB840000EB441042
:101E60001A4901EB4000801C805D80213941084007
:101E700018B14146284600F02DFA681C85B200983A
:101E8000281A182805D1009D08F101001FFA80F8D2
:101E900003E0781CC7B2082FC4DB00BF701CC6B2B9
:101EA000482EBDDB00BF601C84B20198844294DBE5
:101EB00008484088401E83B206480088401E82B20F
:101EC0000021084600F068FBBDE8FC9F829D0008E9
:101ED00038000020680100202DE9FC5F0546884697
:101EE00091469A46DDF830B0009504200190002418
:101EF0005FE004EB8410374911F810009BF80010E4
:101F0000884253D104EB8410324901EB4000407801
:101F10009BF80110884249D108F11F0083B205F1F6
:101F20001F0082B24146284600F036FB00263BE007
:101F3000002734E00D9890B904EB8410254901EB9B
:101F40004000801C805D80213941084018B148461E
:101F500000F05EFC21E0504600F05AFC1DE01E48F7
:101F6000A0F8009004EB84101A4901EB4000801C9B
:101F7000805D80213941084018B14146284600F073
:101F8000A9F9681C85B20098281A202805D1009D5F
:101F900008F101001FFA80F803E0781CC7B2082F8F
:101FA000C8DB00BF701CC6B2802EC1DB00BF601C46
:101FB00084B2019884429CDB08484088401E83B26A
:101FC00006480088401E82B20021084600F0E4FA6C
:101FD000BDE8FC9F889F00083800002068010020B1
:101FE00000BFFEE70EB54FF4407000F031FE02F086
:101FF000E7FA64230022472140F2E73001F020FC99
:1020000002F0B6FC00214FF6FF7001F0A1FC4FF486
:10201000004215491548FFF74BFC00F0AFF800F0FF
:1020200095FC002012490346124ACDE900101249DE
:10203000124800F06AFE02F045F900F06FF94FF423
:10204000E13004F04BF8002010210DA24FF6FF7391
:10205000CDE9002102901F22014601F061F84FF402
:10206000FA7002F0DBFA0EBD000C01400000002007
:1020700000007A443333D33F000060413801002030
:10208000496E697420436F6D706C65746521200022
:102090000020014908737047B80100200148007B07
:1020A00070470000B801002010B502210348FFF777
:1020B000F5FD08B9012010BD0020FCE7000C01402F
:1020C0000020014908737047C80100200148007BC7
:1020D00070470000C801002010B54FF4805104483B
:1020E000FFF7DCFD08B9012010BD0020FCE700006F
:1020F000000C01403FE000F069F8FFF7CFFF054614
:10210000012D08D101F0C8F91B496420FFF743FCF9
:10211000FFF7BEFF0CE0032D03D11748FFF732FC99
:1021200006E0042D04D11448FFF725FCFFF7B0FFAB
:10213000FFF7CCFF0446012C08D101F0EDF90E4960
:102140006420FFF728FCFFF7BBFF11E0022C02D14F
:1021500001F008FA0CE0032C03D10748FFF712FC4A
:1021600006E0042C04D10448FFF705FCFFF7A8FFA4
:102170000A2002F053FABEE70000002010B5482202
:1021800002210D4802F06EFB48224FF480510A48AC
:1021900002F068FB00200949087048600848886020
:1021A0000020087348730749087048600648886033
:1021B00000200873487310BD000C0140B8010020D6
:1021C000A9200008C8010020D920000810B5034844
:1021D00000F008F8024800F005F810BDB801002032
:1021E000C80100202DE9F0410446A068804705465B
:1021F00005F03AF80646207830B1012809D00228C7
:1022000013D0032830D125E015B10120207066607D
:102210002DE06068371A1E2F06D31DB102202070F2
:10222000666001E00020207021E05DB16068371A2F
:10223000B7F57A7F0DD9032020700220207301208A
:10224000607306E0607B08B90120207300202070D5
:1022500060730CE015B10320207304E004202073A8
:1022600000202070607302E00020207000BF00BFDB
:10227000BDE8F08170B5064614484088401E83B220
:1022800012480088401E82B20021084600F084F9FE
:102290004FF400700E4908608020091F0860002478
:1022A0000AE0002503E0304600F0B2FA6D1C074852
:1022B0000088A842F7D8641C04484088A042F0D89F
:1022C0004FF400700249091F086070BD68010020CA
:1022D000140C014070B504460D462946204600F016
:1022E00051F90248008800F093FA70BD38000020D0
:1022F00008B50121082000F045FD4FF47070ADF8DD
:10230000000003208DF8020010208DF803006946BC
:102310000148FFF738FC08BD000C014010B500F083
:10232000BBFDFFF7E5FF00F019F9112000F00AFAF4
:10233000782002F073F9B12000F004FA012000F0D7
:10234000E9F92C2000F0E6F92D2000F0E3F9B220A5
:1023500000F0F8F9012000F0DDF92C2000F0DAF9A6
:102360002D2000F0D7F9B32000F0ECF9012000F0A7
:10237000D1F92C2000F0CEF92D2000F0CBF901206E
:1023800000F0C8F92C2000F0C5F92D2000F0C2F9AA
:10239000B42000F0D7F9072000F0BCF9C02000F00D
:1023A000D1F9A22000F0B6F9022000F0B3F98420A0
:1023B00000F0B0F9C12000F0C5F9C52000F0AAF97D
:1023C000C22000F0BFF90A2000F0A4F9002000F0BC
:1023D000A1F9C32000F0B6F98A2000F09BF92A2069
:1023E00000F098F9C42000F0ADF98A2000F092F9CD
:1023F000EE2000F08FF9C52000F0A4F90E2000F0C7
:1024000089F9362000F09EF9C02000F083F9E02021
:1024100000F098F90F2000F07DF91A2000F07AF909
:102420000F2000F077F9182000F074F92F2000F049
:1024300071F9282000F06EF9202000F06BF92220BD
:1024400000F068F91F2000F065F91B2000F062F928
:10245000232000F05FF9372000F05CF9002000F045
:1024600059F9072000F056F9022000F053F9102026
:1024700000F050F9E12000F065F90F2000F04AF972
:102480001B2000F047F90F2000F044F9172000F05E
:1024900041F9332000F03EF92C2000F03BF92920CF
:1024A00000F038F92E2000F035F9302000F032F934
:1024B000302000F02FF9392000F02CF93F2000F0F7
:1024C00029F9002000F026F9072000F023F9032065
:1024D00000F020F9102000F01DF92A2000F032F958
:1024E000002000F017F9002000F014F9002000F09F
:1024F00011F97F2000F00EF92B2000F023F90020C5
:1025000000F008F9002000F005F9002000F002F9C1
:102510009F2000F0FFF8F02000F014F9012000F0F7
:10252000F9F8F62000F00EF9002000F0F3F83A2058
:1025300000F008F9052000F0EDF8292000F002F97C
:10254000002000F027F90120034908604FF6FF70D2
:10255000FFF790FE10BD00009881214210B54FF4A6
:10256000807007490860642002F058F84FF48070CA
:102570000349091F0860322002F050F810BD000026
:10258000140C014070B504460D462B4622462946E0
:10259000204600F001F870BD2DE9F04104460D46DB
:1025A00016461F461149887A00F0CCF8002000F04A
:1025B000B1F8E0B200F0AEF8002000F0ABF8F0B2F5
:1025C00000F0A8F80949087B00F0BCF8002000F0F2
:1025D000A1F8E8B200F09EF8002000F09BF8F8B2F5
:1025E00000F098F800F0C4F8BDE8F0816801002020
:1025F0002DE9FF4F83B081468A469346DDE910649A
:10260000404800880290A6F12000C6B204EBD470C6
:1026100009EB6000401E82B20AEB0400401E83B248
:10262000514648460194FFF7B7FF129850BB00256A
:1026300025E00C2C07D106EB4600334901EB800066
:1026400010F8058004E0314800EB061010F8058012
:1026500000270DE008F0010018B1584600F0D8F846
:1026600002E0069800F0D4F84FEA6808781CC7B278
:1026700004EBD471B7EB610FECDB681CC5B2A5426B
:10268000D7DB2DE0002529E00C2C07D106EB460016
:102690001D4901EB800010F8058004E01B4800EBA9
:1026A000061010F80580002711E01648A0F800B0C9
:1026B00008F0010038B10AEB050291B209EB0702FC
:1026C00090B2FFF707FE4FEA6808781CC7B204EB28
:1026D000D471B7EB610FE8DB681CC5B2A542D3DB50
:1026E0000849029808800A484088401E83B208487A
:1026F0000088401E82B200210846FFF74DFF07B058
:10270000BDE8F08F38000020E28A0008568F0008EC
:102710006801002010B504464FF4007007490860B6
:102720008020091F08602146054800F02BFC4FF46B
:1027300000700249091F086010BD0000140C014020
:102740000030014010B504464FF40070064908609F
:10275000802008602146054800F014FC4FF400700A
:102760000149091F086010BD140C014000300140F0
:1027700010B50249087AFFF7E5FF10BD6801002097
:1027800070B505460C462846FFF7DCFFE0B2FFF7C0
:10279000C1FF70BD10B504462A201C4948812B207A
:1027A00088812C20088134B1012C0ED0022C16D047
:1027B000032C28D11DE0802014490880A0204880E7
:1027C000C0213620FFF7DCFF1EE0A0200F49088063
:1027D00080204880A0213620FFF7D2FF14E080201F
:1027E0000A490880A020488000213620FFF7C8FF52
:1027F0000AE0A0200549088080204880602136201A
:10280000FFF7BEFF00E000BF00BF10BD6801002061
:1028100010B504464FF40070094908608020091F74
:1028200008602112074800F0ADFBE1B2054800F056
:10283000A9FB4FF400700249091F086010BD000099
:10284000140C01400030014010B50723012204217F
:102850000948FEF77BFF01210748FEF7D8FF00BFBC
:1028600002210548FEF736FF0028F9D00248FEF79E
:102870002DFF0446204610BD002401402DE9F04FF5
:1028800087B00025002407E0FFF7DEFF0544642041
:1028900001F0E4FE601CC4B20A2CF5DB0A20B5FB93
:1028A000F0F086B2304605F0E7FE039005F034FD07
:1028B0004FF066321E4BCDE9040105F01DFA0746C4
:1028C00004F080FF814649461A4806F01BF8494645
:1028D000029005F0BBFD039005F01EFD07460022A7
:1028E000154B05F009FACDE9040104F06BFF8246AF
:1028F000504605F011FD07463A460B460F48104971
:1029000005F04EF84FF060420E4BCDE9000102F0A9
:1029100077F800220C4BCDE9020105F0EDF9CDE985
:10292000040104F04FFF8346584607B0BDE8F08F1E
:1029300066664A3F0000A0400000E03FA089B0E189
:10294000E9153740F0F4E43F0000594000B587B086
:1029500001214FF4017000F015FA4FF4004000F02F
:10296000F5F91020ADF8180000208DF81B0006A91D
:102970001748FFF708F91748FEF770FE002001908E
:102980008DF808008DF809004FF4602003900020B6
:10299000049001208DF8140001A90E48FEF7AEFE48
:1029A00001210C48FEF74FFE0A48FEF72BFF00BF3F
:1029B0000848FEF798FE0028FAD10648FEF732FFD5
:1029C00000BF0448FEF778FE0028FAD107B000BD2A
:1029D000000801400024014000BFFEE7F0E00024B1
:1029E00000235A1E19467748006804F089F8012828
:1029F0000AD1754800687549086100231A461946CE
:102A00007048006804F0B8F97048007830B10128C7
:102A10000ED002282FD0032809D1AEE001F0DCFF50
:102A200000206A498870C861086269490870C2E07C
:102A30006648807820B901F0C7FF0120634988709B
:102A400062488078B0B16149487801F02FFC5F4955
:102A50008882888A05F010FE064631465D4800F0FF
:102A600072F9594801685B4800F0FCF805462846B1
:102A700001F087FF9FE05648007820B1012828D058
:102A8000022878D14EE05148807820B901204F4982
:102A9000887001F099FF504801F073FF4B48C069FE
:102AA00032304A49C8610846807D18B10120484942
:102AB00008700DE04548C0694EF66021884207D392
:102AC00000204249087001F087FF00203F498870CC
:102AD00051E04FF47A7001F0CFFB0446204605F038
:102AE000CBFD064601F04DFF3848006A32303749C9
:102AF00008620846807D30B9022035490870002000
:102B0000324908620DE03148006A4EF66021884281
:102B100007D300202D49087001F05EFF00202B49EB
:102B2000887028E04FF47A7001F0A6FB0446204636
:102B300005F0A2FD064601F024FF2448006A323069
:102B4000224908620846807D30B101202049087082
:102B500000201E4908620DE01C48006A42F2107114
:102B6000884207D300201949087001F035FF002082
:102B70001649887000BF00BF1DE01448C07DC8B171
:102B800012488078B0B11149487801F08FFB0F49A5
:102B90008882888A05F070FD064631460D4800F0AF
:102BA000D2F8094801680B4800F05CF80546284651
:102BB00001F0E7FE00BF00BF322001F02FFD00BF93
:102BC0000DE70000E400002014000020EC2D0020A0
:102BD0001001002038010020000048437047000029
:102BE00070B5002100230F22C47804B3154C24686B
:102BF00004F4E064C4F5E064210AC1F10403CA40AE
:102C0000447804FA03F184781440214309010E4CFE
:102C10000678A155047804F01F050124AC4005781E
:102C20006D11AD0005F1E025C5F8004109E004781B
:102C300004F01F050124AC40044D0678761145F8D8
:102C4000264070BD0CED00E000E400E080E100E013
:102C500002490143024A1160704700000000FA0572
:102C60000CED00E02DE9F04704460D462561D4E95E
:102C7000030105F047FE60616169E06905F078FBDA
:102C8000E061E16AE06905F00BFE02D2E06AE06112
:102C90000BE0E06A80F000473846E16905F000FE8D
:102CA00003D2E06A80F00040E0616169206805F0CD
:102CB0002BFD8046E169606805F026FD8146D4E978
:102CC000050105F01FFE0746A16805F01DFD06463B
:102CD0004946404605F04CFB0746314605F048FBA7
:102CE0002062D4E9080105F0DBFD02D2606A2062AF
:102CF00006E0A16A206A05F0D3FC01D2A06A206236
:102D00006069A061206ABDE8F0872DE9F0470446BC
:102D10000D4616461F46DDE9088925606660A760F6
:102D20000020E06020616061A061E0612062C4F881
:102D30002480C4F828904FF08041404605F086FB7F
:102D4000E062BDE8F087C1607047000001460020E6
:102D5000034A506820F44040084350607047000028
:102D60000010024029B1064AD2690243044BDA61DD
:102D700004E0034AD2698243014BDA6170470000E4
:102D80000010024029B1064A92690243044B9A613D
:102D900004E0034A92698243014B9A617047000044
:102DA0000010024029B1064AD2680243044BDA609F
:102DB00004E0034AD2688243014BDA6070470000A6
:102DC0000010024030B500210022002400232D4DC8
:102DD0006D6805F00C0121B1042905D0082923D123
:102DE00005E0294D056022E0274D05601FE0254DD7
:102DF0006D6805F47012234D6D6805F4803402256A
:102E000005EB92421CB9214D554305600BE01D4D69
:102E10006D6805F400351DB11C4D5543056002E099
:102E2000194D5543056002E0174D056000BF00BF16
:102E3000144D6D6805F0F0010909154D6B5C0568CE
:102E4000DD4045600F4D6D6805F4E061090A104DE5
:102E50006B5C4568DD4085600A4D6D6805F4605126
:102E6000C90A0B4D6B5C4568DD40C560054D6D685A
:102E700005F44041890B074D6B5CC568B5FBF3F564
:102E8000056130BD0010024000127A0000093D00CB
:102E90005A0000206A00002000B587B001210520FB
:102EA000FFF770FFA020ADF8040003208DF80600A6
:102EB00018208DF8070001A91B48FEF764FE40208A
:102EC000ADF8040048208DF8070003208DF80600B7
:102ED00001A91548FEF757FE01210803FFF752FF2D
:102EE0000020ADF808004FF48270ADF80A00002011
:102EF000ADF80C00ADF80E00ADF810004FF4007006
:102F0000ADF812000020ADF81400ADF8160007204F
:102F1000ADF8180002A9054800F016F80121034891
:102F200000F006F807B000BD000801400030014085
:102F300021B1028842F04002028004E002884FF68C
:102F4000BF731A400280704710B50022028802F455
:102F500041520B884C8823438C882343CC882343DD
:102F60000C8923434C8923438C892343CC892343F5
:102F70001A430280838B4FF2FF74234083830B8AB2
:102F8000038210BD024600BF108900F00200002835
:102F9000FAD0918100BF108900F001000028FAD01A
:102FA0009089C0B2704700000EB53BE01E484FF458
:102FB00080431E4A01A9009002A8FEF77DFD044649
:102FC000012C16D10023821E19461948006803F00F
:102FD00097FD01280DD19DF808001649C8709DF88D
:102FE0000400087100231A4619461148006803F0CE
:102FF000C3FEFFF743FC054600235A1E19460C4842
:10300000006803F07DFD012808D10A48856000238F
:103010001A4619460648006803F0AEFE4FF4FA70EF
:1030200001F0FCFAC2E70000080000200010014097
:10303000E4000020EC2D002010B500F001F810BDD8
:103040000CB50020019000903348006840F48030B7
:103050003149086000BF3048006800F4003000903B
:103060000198401C0190009818B90198B0F5A06F24
:10307000F1D12948006800F4003010B1012000901F
:1030800001E0002000900098012843D12348006807
:1030900040F01000214908600846006820F0030055
:1030A00008600846006840F0020008601A4840685E
:1030B000194948600846406848600846406840F43E
:1030C000806048600846406820F47C1048600846EC
:1030D000406840F4E81048600846006840F080709E
:1030E000086000BF0C48006800F000700028F9D0AC
:1030F0000948406820F003000749486008464068D6
:1031000040F00200486000BF0348406800F00C0037
:103110000828F9D10CBD0000001002400020024038
:103120002DE9FF4F83B0064688469146DDE91147F9
:10313000109DB2464FF0000B71E0BBF1000F40D183
:1031400004EBD471384A1288A2EB6101B14204DB6E
:1031500035494988091B414502DA07B0BDE8F08FBF
:103160002878802802DD4FF0010B58E028780D28E0
:1031700006D108EB04001FFA80F856466D1C1EE0CD
:10318000102C0DDD102128788DE883004A46414639
:103190003046069BFFF72CFA06F1080086B20EE0D7
:1031A00028788DE891004A4641463046069BFFF755
:1031B0001FFA204604EBD07106EB61018EB26D1C44
:1031C0002DE019480088001BB04204DB16484088F7
:1031D000001B404500DAC0E74FF0000B202C08D15F
:1031E000CDE900574A4641463046069BFEF774FE3D
:1031F00012E0182C08D1CDE900574A464146304626
:10320000069BFEF7DDFD07E0CDE900574A46414643
:103210003046069BFEF750FDAD1C301986B228786B
:1032200000288AD100BF98E76801002011E0002340
:103230005A1E19460748006803F062FC012808D1AD
:1032400001F03EFA04463221204601F047FA0249D5
:103250000860ECE7E8000020140000201CB50446DC
:1032600002F0D6FF2948042100234022CDE90010B6
:1032700027A1294803F0B8FF284803210023802212
:10328000CDE9001026A1284803F0AEFF274803210E
:1032900000234022CDE9001025A1284803F0A4FF17
:1032A0002748052100234FF48072CDE9001025A1A5
:1032B000264803F099FF2648012100230A02CDE9A0
:1032C000001024A1244803F08FFF2448022100238A
:1032D0004022CDE9001022A1234803F085FF2348B6
:1032E000062100238022CDE9001021A1234803F00C
:1032F0007BFF43F63F01042000F0B6FB02F0CCFF59
:103300001F48006803F032F91CBD0000F4000020E3
:103310004B65795363616E00F5200008F8000020CA
:1033200053656E736F720000A92F0008FC00002027
:1033300057696E645370656564000000F9410008C8
:10334000000100204D6F746F72000000DD2900083D
:103350000401002055490000553E000808010020E6
:10336000416E746942460000311800080C010020CB
:10337000537065656443616C630000002D32000882
:10338000F00000201CB50548012100234022CDE9B2
:10339000001003A1054803F027FF1CBDF00000202A
:1033A00053746172745461736B0000005D320008E5
:1033B000042808D14FF0E021096941F004014FF0E1
:1033C000E022116107E04FF0E021096921F00401DA
:1033D0004FF0E0221161704710B503F035FF01286E
:1033E00001D003F027FB10BD10B51348006840F072
:1033F00001001149086008464068104908400E491C
:103400004860084600680E4908400B4908600846B5
:10341000006820F4802008600846406820F4FE0020
:1034200048604FF41F008860FFF706FE4FF0006011
:103430000449086010BD0000001002400000FFF8C1
:10344000FFFFF6FE08ED00E010B500200E49087001
:1034500048708870C87008718860C8600861888288
:103460008875C875094888610020C8610862012014
:1034700003F0FAFA0649086003220021012003F054
:1034800005FB0449086010BDEC2D00200000C84277
:10349000E4000020E800002010B500235A1E194661
:1034A0001A48006803F02CFB01282DD11848007839
:1034B00030B1012808D002280DD0032813D10EE026
:1034C0000120134908700EE0022011490870002005
:1034D0001049087007E003200D49087003E0002040
:1034E0000B49087000BF00BF09480078022804D0CB
:1034F00000200749887001F06FFA00231A46194628
:103500000248006803F038FC10BD0000E400002011
:10351000EC2D00201001002010B500235A1E194682
:103520000E48006803F0ECFA012815D10C484078E9
:1035300010B1012808D103E001200949487003E0D7
:1035400000200749487000BF00BF00231A461946F3
:103550000248006803F010FC10BD0000E4000020E9
:10356000EC2D00200EB500235A1E19461A4800689B
:1035700003F0C6FA01282DD11848807888B101F0EF
:103580002BFA0020154988700870102114A24FF6FC
:10359000FF73CDE9002102901F220146FFF7C0FD15
:1035A00011E001F011FA01200C4988700870002028
:1035B00010210FA24FF6FF73CDE9002102901F22C8
:1035C0000146FFF7ADFD00231A4619460248006880
:1035D00003F0D2FB0EBD0000E4000020EC2D002023
:1035E0004D6F746F722053746F70706564000000CB
:1035F0004D6F746F722053746172746564000000C3
:10360000F0B50C46154600220021068C4FF6FE77D9
:103610003E400684028B018C4FF60C7632407E1CB5
:1036200006EA03162E433243104EB0420ED0104E1F
:10363000B0420BD0B0F1804F08D00E4EB04205D052
:103640000D4EB04202D00D4EB04206D14FF6FD767F
:10365000314044F00106314305E04FF6F576314044
:1036600044F00106314302830184F0BD002C014087
:10367000003401400004004000080040000C0040FD
:10368000F0B50C461546002200210026078C4FF6A7
:10369000EF7C07EA0C070784028B018C4FF6FF775B
:1036A00007EA041640F6FF473A404FF6FF7707EA6D
:1036B00003373A434FF6FF7707EA05273A43114F9E
:1036C000B8420ED0104FB8420BD0B0F1804F08D0A6
:1036D0000E4FB84205D00E4FB84202D00D4FB8423F
:1036E00006D14FF6DF77394046F01007394305E041
:1036F0004FF65F77394044F0100739430283018465
:10370000F0BD0000002C01400034014000040040E6
:1037100000080040000C0040F0B50C4615460022A1
:1037200000210026078C4FF6FF6C07EA0C07078480
:10373000828B018C4FF6FF7707EA04264FF60C7751
:103740003A404FF6FF7707EA03172F433A43114FEA
:10375000B8420ED0104FB8420BD0B0F1804F08D015
:103760000E4FB84205D00E4FB84202D00D4FB842AE
:1037700006D14FF6FF57394046F48077394305E0CC
:103780004FF2FF57394044F48077394382830184F4
:10379000F0BD0000002C0140003401400004004056
:1037A00000080040000C0040F0B50C461546002211
:1037B00000210026078C4EF6FF7C07EA0C070784E1
:1037C000828B018C4FF6FF7707EA043640F6FF47FD
:1037D0003A404FF6FF7707EA05273A434FF6FF775F
:1037E00007EA03373A43114FB8420ED0104FB842A0
:1037F0000BD0B0F1804F08D00E4FB84205D00E4F1D
:10380000B84202D00D4FB84206D14DF6FF7739408D
:1038100046F48057394305E047F6FF57394044F4F2
:103820008057394382830184F0BD0000002C0140A1
:10383000003401400004004000080040000C00403B
:10384000F0B58BB004460D4616461F460121C8024E
:10385000FFF798FA18224FF480712B4801F002F814
:1038600018224FF40051294800F0FCFF10220421D7
:10387000254800F0F7FFADF82440ADF820504FF494
:103880000070ADF826000020ADF8220008A92048FD
:1038900000F08EFA6020ADF810000020ADF818009E
:1038A000ADF81A000120ADF812000420ADF81400A4
:1038B000ADF8166004A9164800F0F6F9082114487E
:1038C00000F03EFA684600F00FF9ADF806704FF4CC
:1038D0000060ADF800000020ADF80200ADF808006F
:1038E000ADF80A004FF48040ADF80C006946084876
:1038F00000F0EAF80121064800F02CF90121044803
:1039000000F01CF90BB0F0BD00080140000C0140B4
:10391000002C014010B50121880700F053F998B13F
:103920000121880700F007F94FF0804000F045F9C9
:1039300028B106480068401E0449086004E00348B6
:103940000068401C0149086010BD00001000002004
:1039500030B587B005460C4601210846FFF702FA4C
:10396000282201212E4800F07DFF282202212C4828
:1039700000F078FFADF81450ADF810400020ADF81D
:10398000160004A94FF0804000F012FA0020ADF8B4
:1039900004000A20ADF80C000020ADF8060001205C
:1039A000ADF808000020ADF80A0001A94FF08040F2
:1039B00000F01AF90420ADF804000A20ADF80C005C
:1039C0000020ADF806000120ADF808000020ADF899
:1039D0000A0001A94FF0804000F006F900231A46C2
:1039E00003214FF0804000F0C4F81C208DF8000047
:1039F00006208DF8010000208DF8020001208DF8CE
:103A000003006846FFF7ECF801221146900700F02A
:103A100041F90121880700F091F807B030BD00009E
:103A20000008014008B50020009001210B4800F07B
:103A3000C9F890B10121094800F07DF869460848AD
:103A4000006803F003FB009838B14FF0805005493F
:103A50000860BFF34F8FBFF36F8F08BD00080040B1
:103A6000E800002004ED00E07FB505460C4601218A
:103A70000420FFF777F9ADF80850ADF804400020B6
:103A8000ADF80A00ADF8060001A90E4800F090F963
:103A9000012211460B4800F0FDF81E208DF80000B1
:103AA00005208DF8010000208DF8020001208DF81E
:103AB00003006846FFF794F80121024800F03EF841
:103AC0007FBD0000000800400A884B881A438B889D
:103AD0001A43CB881A430B891A434B891A438B89A3
:103AE0001A43A0F844207047002101804180818062
:103AF000C180018141818181704730B5002301245B
:103B00008C40A3B2048C9C430484048C02FA01F51B
:103B1000ADB22C43048430BD30B5002304248C4066
:103B2000A3B2048C9C430484048C02FA01F5ADB268
:103B30002C43048430BDCA430282704721B10288FD
:103B400042F00102028004E002884FF6FE731A4040
:103B50000280704731B1B0F8442042F40042A0F82E
:103B6000442005E0B0F84420C2F30E02A0F844203F
:103B70007047F0B50C4615461E4600210022002372
:103B80000189028B038C4FF6F877394021434FF6B9
:103B9000FC473A4040F201173A434FF6DD773B408D
:103BA0004FF6FF7707EA06172F433B430181028355
:103BB0000384F0BD0146888C704701460888C0F335
:103BC0000010704730B50246002000230024158AFB
:103BD00005EA0103958905EA010413B10CB101203E
:103BE00000E0002030BD000070B505460C462448BA
:103BF00085420ED0234885420BD0B5F1804F08D0C6
:103C00002148854205D02148854202D0204885427E
:103C100000D100E000BF208850B92389A2886188C4
:103C20002846FFF7EDFCE188284600F094F825E0EF
:103C3000208804280AD12389A28861882846FFF7B2
:103C40001FFDE188284600F08FF817E0208808283B
:103C50000AD12389A28861882846FFF75DFDE188A3
:103C6000284600F08EF809E02389A288618828465A
:103C7000FFF79AFDE188284600F08CF870BD00003F
:103C8000002C0140003401400004004000080040C6
:103C9000000C00401AB183890B43838102E08389C1
:103CA0008B4383817047000070B5002400220023FD
:103CB000058C4FF6FE7635400584028C8388048B94
:103CC0004FF68F752C40B51E2C400D882C43751E69
:103CD0002A400D892A434D882A43144DA8420BD00F
:103CE000134DA84208D0134DA84205D0124DA8424A
:103CF00002D0124DA84213D14FF6F7752A404D89D4
:103D00002A434FF6FB752A408D882A434FF6FF65FC
:103D10002B404FF6FF552B408D892B43CD892B43EC
:103D200083800483CD888586028470BD002C014089
:103D3000003401400040014000440140004801407F
:103D40000A460021018B4FF6F77319401143018396
:103D5000704781867047028B4FF6F3731A400283D7
:103D6000028B0A4302837047028B4FF2FF331A40E3
:103D70000283028B4FF6FF7303EA01231A43028387
:103D80007047828B4FF6F3731A408283828B0A430B
:103D900082837047828B4FF2FF331A408283828B7B
:103DA0004FF6FF7303EA01231A4382837047000032
:103DB000002202881D4B98420ED01D4B98420BD01A
:103DC000B0F1804F08D01B4B984205D01A4B984257
:103DD00002D01A4B984204D14FF68F731A404B8889
:103DE0001A43174B984207D0164B984204D04FF60F
:103DF000FF431A40CB881A4302808B8883850B8847
:103E000003850A4B98420BD0094B984208D00E4BC1
:103E1000984205D00D4B984202D00D4B984201D1EB
:103E20000B7A03860123838270470000002C014037
:103E3000003401400004004000080040000C004035
:103E400000100040001400400040014000440140C8
:103E5000004801408CB04FF6FF70FEF70BFA9DE072
:103E60004F4800784F4951F820204FA104A8FCF793
:103E700037FA0020102104AA4FF6FF73CDE9002184
:103E800002901F221421FFF74BF94548407848491A
:103E900051F8202047A104A8FCF722FA00201021A5
:103EA00004AA4FF6FF73CDE9002102901F222821BA
:103EB000FFF736F93A49C86804F02EFA044622465C
:103EC0000B463FA104A8FCF70BFA0020102104AA1E
:103ED0004FF6FF73CDE9002102901F223C21FFF72E
:103EE0001FF92F49086904F017FA044622460B46C9
:103EF00037A104A8FCF7F4F90020102104AA4FF61A
:103F0000FF73CDE9002102901F225021FFF708F92D
:103F100033483449097850F8212033A104A8FCF72C
:103F2000DFF90020102104AA4FF6FF73CDE900212C
:103F300002901F226421FFF7F3F81948C0694FF47B
:103F40007A71B0FBF1F4224629A104A8FCF7C8F964
:103F50000020102104AA4FF6FF73CDE90021029042
:103F60001F227821FFF7DCF80D48006A4FF47A71C0
:103F7000B0FBF1F4224621A104A8FCF7B1F900201E
:103F8000102104AA4FF6FF73CDE9002102901F22F1
:103F90008C21FFF7C5F8C82000F040FB60E7000067
:103FA000EC2D0020140100204D6F64653A2573004C
:103FB000240100204C6576656C3A257300000000F2
:103FC00057494E443A252E31662525202000000011
:103FD00052504D3A252E306620202020000000004F
:103FE0002C010020100100204175746F3A257300E8
:103FF000414D436E743A2564732020004345436E5F
:10400000743A25647320200010B540F225511D48F4
:1040100000F053F810B31B4800F0E6F8C4B21A4899
:10402000008800F40040C8B91748008800F48040B8
:1040300060B10A2C03D000201349088020E0124808
:10404000008840F400401049088019E00D2C06D18A
:104050000D48008840F480400B49088010E00A4871
:104060000088C0F30D0009490C5407480088401C23
:104070000549088008460088C72801DD002008801F
:1040800010BD00000038014054000020D80100207D
:1040900021B1828942F40052828104E082894DF686
:1040A000FF731A40828170471AB1838A0B4383825F
:1040B00002E0838A8B438382704770B502460024F6
:1040C00000230025002040F66A16B14200D100BF4F
:1040D000C1F3421501F01F03012606FA03F3012D77
:1040E00002D19689334006E0022D02D1168A334070
:1040F00001E0968A33400C12012606FA04F4168871
:10410000344013B10CB1012000E0002070BD00006C
:104110002DE9F04786B005460E460024A24600BFB2
:10412000A1460027B08900B100BF2F462C8A4CF66B
:10413000FF700440F08804432C82AC894EF6F310E3
:104140000440B08831890843718908430443AC8135
:10415000AC8A4FF6FF400440B0890443AC8201A80A
:10416000FEF730FE1F48874202D1DDF810A001E0C3
:10417000DDF80CA0A88900F4004040B10AEBCA00A9
:1041800000EB0A1031684900B0FBF1F807E00AEBD8
:10419000CA0000EB0A1031688900B0FBF1F8642016
:1041A000B8FBF0F004012009642101FB1089A88903
:1041B00000F4004040B1322000EBC900B0FBF1F048
:1041C00000F00700044308E0322000EB09106421EE
:1041D000B0FBF1F000F00F0004432C8106B0BDE805
:1041E000F08700000038014001468888C0F30800CD
:1041F000704700BFFEE7000033E000235A1E194657
:104200001848006802F07CFC01280AD11648C478DE
:104210000579866800231A4619461248006802F09C
:10422000ABFD32462946204600F05EF800235A1EB8
:1042300019460C48006802F063FC01280ED100F01A
:1042400015F80949C86000F049F807498875002346
:104250001A4619460348006802F08EFD642000F0FB
:10426000DDF9CAE7E4000020EC2D002001480069D8
:1042700070470000A00100202DE9F04104462046CF
:1042800004F0FAF9074607480169384604F03CFA99
:104290000646054904F0DAF8054604F0B5F980B29F
:1042A000BDE8F081A00100200000C842014611B124
:1042B000012904D101E0BE207047DC20FCE7BE20CC
:1042C000FAE7000000200449086048608860C86080
:1042D0000861087570470000A00100200148007DBA
:1042E00070470000A00100202DE9F04704460D466C
:1042F0001646A4F114000F2190FBF1F7384604F0A4
:10430000A3F9364908604FF07E5208680021FDF796
:104310004FFB32490860A5F12800232190FBF1F7FB
:10432000384604F091F92D4948604FF07E524868B4
:104330000021FDF73DFB294948602949304604F03A
:10434000E1FA0746274904F081F8244988604FF0D4
:104350007E5288680021FDF72BFB204988600846C3
:104360008168214804F0D0F980461C4841681F4804
:1043700004F0CAF98146194801681C4804F0C4F9E0
:104380008246494603F0F4FF0746414603F0F0FF3A
:104390001249C8600846C168114804F0B5F90746DB
:1043A000134903F0E5FF0D490861124A08691049F5
:1043B000FDF7FEFA094908611A2C0ADD322D08DDE5
:1043C0000C49304604F06CFA03D201200349087509
:1043D00002E0002001490875BDE8F087A001002037
:1043E0000000A0420000B9439A99193FCDCC4C3E41
:1043F0000000A0410000C842490050EAC12018BF97
:1044000004204A0D18BF40F0010040F2FF72B2EBE9
:10441000515F08BF40F00200012808BF0520704727
:104420002DE9F0414F1E00EBC7010446D1E9000120
:1044300015461E4637F006020DD02A46334603F0D5
:104440005BFC7F1E04EBC703D3E9002303F0ECF908
:1044500037F00602F1D1022F25D0042F13D0062FFA
:1044600018BFBDE8F0812A46334603F045FCD4E985
:104470000A2303F0D9F92A46334603F03DFCD4E978
:10448000082303F0D1F92A46334603F035FCD4E97A
:10449000062303F0C9F92A46334603F02DFCD4E97C
:1044A000042303F0C1F92A46334603F025FCD4E97E
:1044B000022303F0B9F92A46334603F01DFCD4E980
:1044C0000023BDE8F04103F0AFB90000002213461D
:1044D0001046014903F064BA0000F03F03F0A4B9AC
:1044E000002213461046114603F05ABA40F2013238
:1044F00000204FF0E04104F0AEBA0000024A002074
:10450000110704F0A8BA000001FDFFFF30380A28A7
:1045100001D2012070470020704700BF70470000A3
:1045200010B504461F492068884204D101210420A7
:10453000FEF728FC34E01C492068884204D10121A0
:104540000820FEF71FFC2BE018492068884204D1A0
:1045500001211020FEF716FC22E015492068884250
:1045600004D101212020FEF70DFC19E0114920683B
:10457000884204D101214020FEF704FC10E00E49DE
:104580002068884204D101218020FEF7FBFB07E070
:104590000A492068884203D101218015FEF7F2FB09
:1045A00010BD000000080140000C01400010014057
:1045B0000014014000180140001C0140002001408F
:1045C00010B50420FEF7F4FE104800681049B0FB57
:1045D000F1F0104908700D4800680D49B0FBF1F486
:1045E0004FF47A70444301200B4908804FF0E020DB
:1045F000006940F002004FF0E02108610846446184
:10460000006940F00100086110BD000018000020A2
:1046100040420F00560000205800002070B50446AC
:1046200002F012FE012810D00B480088844206D305
:1046300009480088B4FBF0F5284601F05DFF064804
:104640000088B4FBF0F100FB11444FF47A7104FBD5
:1046500001F000F003F870BD5800002070B503466B
:1046600000224FF0E02675690D4E367803FB06F404
:104670004FF0E026B16910E04FF0E026B0698842C3
:104680000BD0884202D20E1A324402E02E1A0E4497
:1046900032440146A24200D300E0EDE700BF70BD06
:1046A0005600002000BF054A128802F04002002A8E
:1046B000F9D0C2B2014B1B1D1A807047003801406F
:1046C00010B54FF08040FFF775FA0349096800EB19
:1046D0000144204610BD0000100000202DE9F04FDD
:1046E0008BB082460E4600250024A1464D48007836
:1046F000B0427DD14C48C0F800A04FF47A7090FBD6
:10470000F6FB584603F0A4FA0022484BCDE900011D
:1047100003F0F2FA0746884643490968444A12689A
:10472000881A03F095FA3A464346CDE9020103F0B0
:10473000E3FA00223F4BCDE9040103F031F90022F6
:104740003D4BCDE9060103F02BF9CDE9080103F05B
:1047500039F83A490A780978491C384B19703849B0
:1047600041F8220030480068314908601846007856
:104770000A284AD10A251DE0002417E0304B621CAC
:1047800053F822101A4652F8240004F089F80BD28C
:104790002B4850F824900146601C51F8200041F845
:1047A0002400601C41F82090601CC4B2681EA04226
:1047B000E4DCC5B2012DDFDA4FF00009022508E084
:1047C0001F4850F82510484603F0D2FD8146681C6A
:1047D000C5B2082DF4DB1B49484603F037FE81467D
:1047E00019491A48006803F08FFF0746494600E060
:1047F0000EE0174803F088FF8046394603F0B8FD05
:104800001249086000200D49087000200549087011
:1048100004480078401C034908700C4800680BB03D
:10482000BDE8F08F440000204C00002000004E4006
:104830004800002000003E400000464045000020A7
:10484000780100200000C040B81E053F4000002055
:104850008FC2F53E70B504460D4629462046FDF749
:1048600026FA70BDF8B504460D4616462148844226
:1048700004D101210420FEF785FA2EE01E4884426F
:1048800004D101210820FEF77DFA26E01B4884426E
:1048900004D101211020FEF775FA1EE01848844269
:1048A00004D101212020FEF76DFA16E0154884425C
:1048B00004D101214020FEF765FA0EE0124884423F
:1048C00004D101218020FEF75DFA06E00F48844202
:1048D00003D101218015FEF755FAADF800508DF88F
:1048E000036003208DF8020069462046FDF74BF96E
:1048F000F8BD000000080140000C0140001001401C
:104900000014014000180140001C0140002001403B
:1049100070B504460D4629462046FDF7CAF970BD1C
:10492000FDF760FBFEF790FDFEF72CFD01F080FF28
:1049300000BFFEE710B50446002211460B48FFF702
:10494000DCF8002211460948FFF7E6F82CB90422EA
:1049500000210648FFF7E0F806E0012C04D101220F
:1049600000210248FFF7C9F810BD0000002C0140EB
:1049700010B50020FFF7DEFF00F02EF800F024F85D
:1049800010BD70B50546284603F022FE0446002CF3
:1049900006DB0020FFF7CEFFA0B200F009F806E02A
:1049A0000120FFF7C7FF614288B200F001F870BD37
:1049B00010B50446B4F57A7F03DC21460148FFF7C1
:1049C000C8F910BD002C014010B504210148FFF7C3
:1049D0009FFF10BD0008014010B500221146064897
:1049E000FFF78BF8002211460348FFF795F80421E2
:1049F0000248FFF72FFF10BD002C014000080140C6
:104A00002DE9F04D1D460C4698B0174621F00041A7
:104A100023F00043002814BF4FF0010C4FF0000CAE
:104A20000CEB440CFE4A0CEB02064FEA620C6645A6
:104A30002BD33E0018BF012606EB45061644F94A63
:104A4000964222D3F84A53EA070C02D0944205D189
:104A500048B918B000201146BDE8F08D002808BF05
:104A60004FF0000C01D04FF0010C0CEB440212F59A
:104A7000001F0AD8002F14BF4FF0010C4FF0000C9C
:104A80000CEB450212F5001F07D918B03A462B4629
:104A90002146BDE8F04DFFF721BD0022DFF88CA3D1
:104AA000002CB8BF534526DADFF884C36345A8BF9E
:104AB000022220DADFF870C39C451CDCDFF874C3E7
:104AC0000CEB235CBCF1140F08DDCCF1340627FAA3
:104AD00006FC0CFA06F6BE420DD108E05FB9CCF137
:104AE000140623FA06FC0CFA06F69E4203D10CF0DB
:104AF0000102C2F1020251EA000C19D1002D17DAAD
:104B0000002C18BF022A01D0012A07D00220FBF78F
:104B10003EFD18B0BDE8F04DFFF7D8BC0220FBF712
:104B200036FDFFF7D3FC18B081F00041BDE8F08DF1
:104B3000B7F1000C6CD1534525D104F1804212F538
:104B4000801201BF00280020B74918B008BFBDE897
:104B5000F08DB548884207DC002DA1BF604629468C
:104B600018B0BDE8F08D07E0281E05DA80F000419E
:104B700018B06046BDE8F08DAF497944D1E9000135
:104B800018B0BDE8F08DDFF8A0C2634525D1002D37
:104B90001FDA19B1514512D1D8B909E0002840F007
:104BA000EC82A24A214618B062F31E01BDE8F08DE6
:104BB0000020214618B060F31E01BDE8F08D08DA30
:104BC00018B02346BDE8F04D02460020614602F0D1
:104BD000E7BE18B02146BDE8F08D514518DAB5F1B1
:104BE000804F0DD0A5F1005CBCF1FF5C10D1B4F199
:104BF000000C0DDB18B06146BDE8F04D01F047BA7E
:104C0000234618B00246BDE8F04D194603F074B8CB
:104C1000060024F0004C3BD1D9B1514533D1002CD2
:104C200006DD002DA1BF0020514618B0BDE8F08D73
:104C3000002C01DD002D1BDB002C13DA002D11DB15
:104C4000012A4FF0000014BF78497C4918B0BDE834
:104C5000F08D022A18BF002C0AD0012A08D1002C9E
:104C600006DA0AE0002CB8BF002D11DA012A04D0C0
:104C7000002018B00146BDE8F08D18B000204FF0BC
:104C80000041BDE8F08DA1F14050B0F17F601AD035
:104C9000012000EBE47050EA020421D0624C521E65
:104CA0004FF0000B104304BF4FF0000B644C6548FD
:104CB00083427CDD644A654893421FDD884217DBEE
:104CC000002D25DB37E0002C00DA4AB1022A0CBFA8
:104CD00001204FF0FF3018B0BDE8F04D02F0B8BF32
:104CE0000120FBF754FC18B0BDE8F04DFFF7F8BB0E
:104CF0004D4A8A4202DC002D0ADC1CE0814202DAC5
:104D0000002D18DA04E0484B994220DD002D12DD19
:104D10000220FBF73CFCFFF7E9FB05460E460022AC
:104D200053465846214602F0E7FF18B066F31E01CD
:104D30002846BDE8F08D0220FBF729FCFFF7DEFBDB
:104D40000A46214618B062F31E01BDE8F08D00222C
:104D50003046614603F0F6F980460E466FF00102D8
:104D600003F079FE4FF05532394B03F0F9F8424623
:104D7000334602F0C1FF0022364B03F0F1F88246C1
:104D80004246334604911046194602F0B5FF52469A
:104D9000049B02F0B1FF8A4600904FF0C0422E4BB8
:104DA0004046314602F0A8FF2C4A2B4B00E027E09A
:104DB000CDE906015146009802F09EFF824601911E
:104DC000274A284B4046314602F096FF5246019B47
:104DD00003F0B8F982460B4602460591DDE906016B
:104DE00002F022FDDDE9062300268846304603F066
:104DF000A9F95246059B03F0B3F8024600F07EB9CC
:104E00000020B1F5801F07DA35223046614603F0F5
:104E100022FE06466FF0340000EB215024E0000033
:104E2000FFFF1F00FFFF0F000000F03F0000F07FBA
:104E30000000404301FCFFFF9A5600000000F0FF15
:104E40000000F0BF0000E0410000F043FFFFEF3F33
:104E50005555D53F0000E03F4715F73FFE822B65D3
:104E600044DF5DF80BAE543EA0F2FF300190C1F379
:104E7000130040F07F6141F040510291FE498842A9
:104E8000D8BF002004DDFD498142C8BF012001DDFB
:104E90000D9008E000200D900198401C01900298B0
:104EA000A0F5801002900299F54878440B910D9975
:104EB00000EBC100D0E900230F9330460A920B9912
:104EC00003F040F9CDE90601DDE90A2130460F9BE8
:104ED00002F0AAFC02460B460020EA4902F060FDFF
:104EE000059102460B460090DDE9060102F004FF41
:104EF0001490E5488A464FF000087844029900680B
:104F000012904FF0005040EA61010D980F9B01EBA9
:104F1000804000F5002109910A9A129803F012F9D5
:104F200032460B9B03F01CF84246534602F0E4FE67
:104F30000646029140465146099B129A02F0DCFE59
:104F4000DDE9062303F00CF83246029B03F0FAF881
:104F5000059B009A02F0D0FE0091149A04905346EB
:104F60001046194602F0C8FE06460246C7480B46E0
:104F7000029106217844FFF753FACDE90510029B10
:104F800032461046194602F0B7FEDDE9053202F05E
:104F9000B3FE05910646534640461946149A02F060
:104FA00043FC009B049A02F0A7FE3246059B02F0E8
:104FB0003BFCCDE90510424653461046194602F027
:104FC0009BFE0022B24B02910A9002F02DFCDDE91B
:104FD000053202F029FC0E464246AD4B404603F036
:104FE000B1F8029B0A9A03F0ADF8DDE9053202F050
:104FF000B7FF424602910A9033461046514602F0EE
:105000007BFECDE906015346149A02990A9802F0F4
:1050100073FE8A460290334642460099049802F095
:105020006BFE5346029A02F0FFFB82460B46024695
:105030000591DDE9060102F0F7FBDDE9062300201A
:105040008846064603F07EF85246059B02F088FF2C
:10505000824609914FF060428E4B3046414602F045
:105060004BFE049006918C4A8A4B5046099902F0F7
:1050700043FE82460291894A894B3046414602F0FE
:105080003BFE5246029B02F0CFFB864B7B440D9ABF
:1050900003EBC203D3E9002302F0C6FB0E90079195
:1050A000019802F0D5FD0591DDE9061382460E9ABE
:1050B000049802F0B9FB7C4A7A440D9B02EBC303CF
:1050C000D3E900230093029202F0AEFB5246059B07
:1050D00002F0AAFB0026884652463046059B03F0A4
:1050E00031F8009B029A03F02DF8069B049A03F016
:1050F00029F8079B0E9A02F033FF024600200B4668
:1051000002903846294602F0F7FD824601912B466F
:1051100038461946029A03F015F83246434602F023
:10512000EBFD5246019B02F07FFB07468A46324662
:1051300043462946029802F0DFFD05460E463A46F0
:10514000534602F071FB594A8846914221DBA8EB95
:10515000020353EA000210D12A46334602F0F2FF5E
:10516000CDE90401524A534B3846514602F05CFBEC
:10517000DDE9042302F0BEFE21D20220FBF707FA8C
:10518000FFF7B4F90A46214618B062F31E01BDE8E4
:10519000F08D494B28F000429A4210D3474A08EB61
:1051A000020353EA00027FF4C6AD2A46334602F0FA
:1051B000C9FF3A46534602F09DFE7FF6BCAD002281
:1051C000019228F000403E493E4A01EB20518242C4
:1051D00023DA481C4FF4801121FA00F040443A4A87
:1051E000C0F30A517A44394BA1F2FF31CB4020EA97
:1051F0000303C0F3130040F48010C1F11401C84050
:1052000012680190B8F1000FBCBF404201902846DF
:10521000314602F097FF05460E462A463346384689
:10522000514602F001FB4FF000084246284B404631
:10523000059102F061FDCDE90601264A264B404664
:10524000059902F059FD009102902A4633464046E6
:10525000059902F077FF3A46534602F081FE1F4A55
:105260001F4B02F049FD009B029A02F0DDFA07464F
:10527000884602460B4635E08E9803007AB60B004E
:10528000E25200000000F03F1A53000048520000B4
:105290000000084009C7EE3FFD033ADCF5015B144E
:1052A000E02F3EBE20510000E4500000000090407E
:1052B000FE822B654715973C00CC904000346F3F31
:1052C00001FCFFFF0000E03F30500000FFFF0F0037
:1052D000432EE63F396CA80C615C20BEEF39FAFE24
:1052E000422EE63FDDE9060102F09EFADDE90623E3
:1052F00005460E4602F026FF3A46434602F030FECF
:105300000F462A46334600901046194602F0F4FC38
:10531000824602462E4888460B4605217844FFF710
:105320007FF85246434602F0E7FC2A46334602F035
:1053300017FE80468A463B4628463146009A02F0D0
:10534000DBFC3B46009A02F06FFA069100900022C7
:105350004FF080434046514602F0F4FE0F460C9059
:10536000424653462846314602F0C6FC3B460C9A5C
:1053700002F016FB069B009A02F0E4FE2A46334632
:1053800002F0E0FE0022134B02F0EAFD0546019810
:105390000E4601EB00510815002810DC2846314666
:1053A000019A03F058FBFFF727F8042808BFFFF71E
:1053B000A5F828463146019A03F04DFB05460B46F9
:1053C00018B02A4658462146BDE8F04D02F094BC7C
:1053D000D04E00000000F03F2DE9F04105460E469A
:1053E0001C4807681C480068001D00F0C7FE50B943
:1053F0001948006890F82C10012088401749096866
:10540000814316480160681C38B936B112480168FA
:10541000091D134800F0F0FE1AE07C190E480068E0
:105420004460BC4207D20C480168091D0D48006861
:1054300000F0C8FE0CE008480168091D0A48006831
:1054400000F0C0FE09480068844201D207480460A9
:10545000BDE8F0818400002070000020880000205A
:10546000B00500207800002074000020A00000207B
:1054700010B5044600F0CCFE24480068401C2349C7
:1054800008602348006840B9214804600846006865
:1054900001280DD100F0FCF90AE01E48006838B977
:1054A0001B480068C06AE16A884201D81848046055
:1054B00019480068401C1849086008460068606484
:1054C00094F82C10012088401449096808431349B6
:1054D0000860E16A01EB8101114A02EB8100211DA4
:1054E00000F08AFE00F0D8FE0A48006868B108485B
:1054F0000068C06AE16A884207D24FF080500949CB
:105500000860BFF34F8FBFF36F8F10BD8000002086
:10551000700000208C0000209C00002088000020EB
:10552000E002002004ED00E010B500F071FE10482C
:105530000068D0B90F4800F035FE0F4800F032FE89
:105540000C480E4908600C480D49086000221021E3
:10555000052001F09BFA064908600846006820B162
:1055600008A10348006800F08BFF00F095FE10BD15
:10557000B4000020C4050020D8050020AC000020A5
:10558000B0000020546D72510000000070B523E09F
:1055900001F0A4F91348006808B9012000E00020D8
:1055A000054601F0DDFFBDB900F032FE0D48C068D0
:1055B000C468201D00F0E2FD0B480068401E0A4947
:1055C00008600A480068401E0849086000F064FE50
:1055D000204600F060F800BF044800680028D7D1DA
:1055E00070BD00009C050020800000207C00002091
:1055F00070B504460D46206C70B1216CE06808441B
:10560000E0606168E068884201D32068E060284675
:10561000226CE168FAF765FF70BD2DE9F0410446A0
:105620000F4615464FF00008A66B206C40B9206865
:1056300060BB606801F0CEFE80460020606025E01F
:105640007DB93946226CA068FAF74BFF216CA0683F
:105650000844A060D4E90110884217D32068A060F4
:1056600014E03946226CE068FAF73BFF216CE068F1
:10567000401AE0602168E068884203D2216C6068CB
:10568000401AE060022D01D106B1761E701CA063A5
:105690004046BDE8F08110B50446206B00F034FEB2
:1056A000204600F031FE10BD0146084A126812681B
:1056B0000AB9012200E000220A600A6822B9034AFE
:1056C0001268D268106800E000207047AC0000202B
:1056D00030B54FF42053174800F007042CB1C01D1B
:1056E00020F00700134C041B1B1B0246124C2260C7
:1056F0000024114D6C60D018083820F007000F4CC2
:10570000206000240D4D2D686C600C4D2D682C60C0
:105710001146441A4C60094C24680C60084D4C68D2
:105720002C60084D4C682C604FF00044064D2C60F6
:1057300030BD0000EC050020C0000020C8000020A3
:10574000D0000020CC000020D400002000BFFFF7D4
:105750001DFF064800680128F9D94FF08050044920
:105760000860BFF34F8FBFF36F8FF0E7E0020020B8
:1057700004ED00E010B504464CB1002060602060EC
:10578000E06000231A461946204601F0F5FA10BDE4
:105790002DE9F04106460D4617469846069C0DB980
:1057A000246000E02760E66325640121204601F0C3
:1057B0008BFA84F850800020A064BDE8F0810000DE
:1057C0002DE9F05F82460F4690469B460A9E0C9C50
:1057D0004FEA8801A522206BFAF7C8FEA8F1010064
:1057E000216B01EB800929F0070909F0070008B9CE
:1057F000012000E0002028B940F22B321BA120A09C
:10580000FAF762FD002507E0795D04F134004155A7
:10581000785D00B902E06D1C102DF5D300BF0021AA
:1058200043200155202E00D31F26E662E6640020A7
:105830002065201D00F0C3FC04F1180000F0BFFC3F
:105840002461C6F12000A06164620020606584F8D4
:1058500058005A465146484600F000FC20600B981C
:1058600008B10B980460BDE8F09F00002E2E5C4646
:1058700072656552544F535C7461736B732E630091
:105880004572726F723A25732C25640D0A00000070
:1058900010B5002407E004EB84010F4A02EB8100FD
:1058A00000F080FC641C202CF5D30C4800F07AFC3E
:1058B0000B4800F077FC0B4800F074FC0A4800F03D
:1058C00071FC0A4800F06EFC04480949086004486D
:1058D0000849086010BD0000E002002060050020BB
:1058E00074050020880500209C050020B0050020DC
:1058F000740000207800002010B50146164800E032
:10590000006803688B42FBD30246436813448B4212
:1059100004D143684C682344436001460A464B68FF
:1059200013440468A34211D10C4C03682468A342B9
:1059300008D04B680468646823444B6003681B68A4
:105940000B6005E0054B1B680B6001E003680B6012
:10595000884200D0016010BDC0000020C8000020B7
:105960002DE9F04104460D4616461F464FF000084B
:1059700065602461B5420CD8F01BA169884202D34E
:105980004FF0010811E0211D0948006800F01AFCE1
:105990000BE0BE4204D2BD4202D34FF0010804E046
:1059A000211D0448006800F00DFC4046BDE8F08170
:1059B000B0000020AC00002070B5054600F028FCC7
:1059C000A86B08B9012400E0002400F065FC204623
:1059D00070BD70B5054600F01BFCA86BE96B8842F2
:1059E00001D1012400E0002400F056FC204670BDE7
:1059F0002DE9F3410D460098846C00272CB940F640
:105A0000D6121AA11EA0FAF75FFCA06BE16B8842C8
:105A100001D2012000E0002028B940F6D71213A1DE
:105A200017A0FAF751FCA06BE16B88421BD294F9E6
:105A300045602A4669462046FFF7EFFD0746701C81
:105A400060B9606A08B9012000E0002050B904F193
:105A5000240001F02BFD28B1012703E0701C40B2A7
:105A600084F8450000BF3846BDE8FC812E2E5C4618
:105A700072656552544F535C71756575652E630090
:105A80004572726F723A25732C25640D0A0000006E
:105A9000F8B505460F4613480068C068C468201D65
:105AA00000F06CFBE069012818D1A06941192B4670
:105AB0003A462046FFF754FF80B1002003462A46AD
:105AC00001460090204601F015FE06462EB94FF41F
:105AD000027205A10AA0FAF7F7FB00BF2046616A2F
